S01900004578636572636973652033202D2050574D2E73726563BC
S11300000C9448000C945A000C945A000C945A0016
S11300100C945A000C945A000C945A000C945C00F2
S11300200C945A000C945A000C945A000C945A00E4
S11300300C945A000C945A000C945A000C945A00D4
S11300400C945A000C945A000C945A000C945A00C4
S11300500C945A000C945A000C945A000C94880086
S11300600C945A000C945A000C945A000C945A00A4
S11300700C945A000C9405010C945A000C945A00E8
S11300800C945A000C945A000C945A000C945A0084
S113009011241FBECFEFCDBFDFE3DEBF28E2A0E017
S11300A0B8E201C01D92A430B207E1F70E944D01ED
S11300B00C945C010C9400001F920F920FB60F92E7
S11300C011248F939F93EF93FF9380910028909135
S11300D0012801968093002890930128E0E0FAE03B
S11300E09385938780FD04C081E08093660403C0F8
S11300F081E0809365041092200A1092210AFF91F6
S1130100EF919F918F910F900FBE0F901F901895B4
S11301101F920F920FB60F9211248F93EF93FF93B8
S1130120E0E0F6E0838583871092200A1092210A8A
S1130130E0E6F4E0848188608483FF91EF918F91FD
S11301400F900FBE0F901F901895E0E0FAE02EE09C
S1130150208386A397A39C01992314F42F5F3F4F18
S113016035952795E0E0FAE020A731A781818360E7
S1130170818381E08287828580618287808181603A
S113018080830895E0E0FAE02EE0208386A397A31D
S11301909C01992314F42F5F3F4F35952795E0E098
S11301A0FAE020A731A781818360818381E082877F
S11301B08285806182878081816080830895209117
S11301C00228309103282130310529F410920228A5
S11301D010920328089521E030E020930228309300
S11301E00328019749F48EEF90E00E94A5008FE761
S11301F090E00E94C20008958FE790E00E94A5005D
S11302008EEF90E00E94C20008951F920F920FB6E5
S11302100F9211242F933F934F935F936F937F9388
S11302208F939F93AF93BF93EF93FF93E0EAF4E030
S11302308185818781858295817090E00E94DF00AD
S1130240FF91EF91BF91AF919F918F917F916F91AA
S11302505F914F913F912F910F900FBE0F901F9080
S11302601895E0E0F6E0808180838081826080835D
S113027080818160808386818760868384858160B4
S11302808487828993898861828B938B828582603B
S113029082878481816084830895C0E6D4E0888164
S11302A0826088838FE790E00E94A5000E9431015C
S10F02B0789487E08C83FFCFF894FFCF94
S9030000FC
