S01900004578636572636973652033202D2050574D2E73726563BC
S11300000C9448000C9452000C9452000C9452002E
S11300100C9452000C9452000C9452000C947200F4
S11300200C9452000C948B000C9452000C945200CB
S11300300C9452000C9452000C9452000C945200F4
S11300400C9452000C9452000C9452000C945200E4
S11300500C9452000C9452000C9452000C945200D4
S11300600C9452000C9452000C9452000C945200C4
S11300700C9452000C94A4000C9452000C94520062
S11300800C9452000C9452000C9452000C945200A4
S113009011241FBECFEFCDBFDFE3DEBF0E945400AB
S11300A00C94B9000C940000E0E6F4E080818260D6
S11300B08083E0E0FAE08EE080838EEF90E086A318
S11300C097A38FE790E080A791A7818183608183C4
S11300D081E08287828580618287808181608083DC
S11300E07894FFCF1F920F920FB60F9211248F9323
S11300F0EF93FF93E0E0FAE083858387E0E6F4E0A2
S1130100848182608483FF91EF918F910F900FBE61
S11301100F901F9018951F920F920FB60F921124F3
S11301208F93EF93FF93E0E0FAE083858387E0E623
S1130130F4E0868182608683FF91EF918F910F9026
S11301400FBE0F901F9018951F920F920FB60F922B
S113015011248F93EF93FF93E0EAF4E08185818784
S11301608185FF91EF918F910F900FBE0F901F909B
S10901701895F894FFCF7E
S9030000FC
