:100000000C9448000C945A000C945A000C945A001A
:100010000C945A000C945A000C945A000C94090148
:100020000C945A000C945A000C945A000C945A00E8
:100030000C945A000C945A000C945A000C945A00D8
:100040000C945A000C945A000C945A000C945A00C8
:100050000C945A000C945A000C945A000C943501DC
:100060000C945A000C945A000C945A000C945A00A8
:100070000C945A000C9452010C945A000C945A009F
:100080000C945A000C945A000C945A000C945A0088
:1000900011241FBECFEFCDBFDFE3DEBF28E2A0E01B
:1000A000B8E201C01D92A430B207E1F70E948001BE
:1000B0000C9493010C940000E0E0FAE02AE0208325
:1000C00086A397A39C01992314F42F5F3F4F359586
:1000D0002795E0E0FAE020A731A781818360818342
:1000E00081E08287828580618287808181608083D0
:1000F000089598ED94BFE0E6F0E02BE0218394BFF3
:1001000091E0908320E030E0382F330F330F2F6FD2
:10011000E0E8FAE0248735878081816080838081F0
:100120008260808381818061818381818760818316
:100130000895E0E0F6E080818083808182608083A2
:1001400080818160808386818760868384858160E9
:100150008487828993898861828B938B8285826070
:10016000828784818160848308950E94990084E05D
:1001700090E00E945C0084E090E00E947900089585
:10018000CF93DF93EC019091640425E2929F212D9F
:100190001124921B9695920F92FF38C080910228ED
:1001A00090910328019761F410920228109203287D
:1001B000E0E6F4E08481886084830E94B50026C074
:1001C00010920006209729F084E090E00E947900C8
:1001D00004C084E090E00E945C0081E090E08093A5
:1001E000022890930328219749F488E090E00E9428
:1001F0005C0084E090E00E94790008C084E090E018
:100200000E945C0088E090E00E947900DF91CF912D
:1002100008951F920F920FB60F9211248F939F9300
:10022000EF93FF938091002890910128019680938D
:10023000002890930128E0E0FAE09385938780FD01
:1002400004C081E08093660403C081E0809365046C
:100250001092200A1092210AFF91EF919F918F91A5
:100260000F900FBE0F901F9018951F920F920FB610
:100270000F9211248F93EF93FF93E0E0F6E08385D4
:1002800083871092200A1092210AE0E6F4E084812C
:1002900088608483FF91EF918F910F900FBE0F9034
:1002A0001F9018951F920F920FB60F9211242F9343
:1002B0003F934F935F936F937F938F939F93AF93EE
:1002C000BF93EF93FF93E0EAF4E081858187818516
:1002D0008295817090E00E94C0000E949900FF9179
:1002E000EF91BF91AF919F918F917F916F915F91AE
:1002F0004F913F912F910F900FBE0F901F90189527
:10030000A0E6B4E08C9185608C93E0E2F4E080811B
:100310008160808385E014968C9381E084830E94C1
:0A032000B5007894FFCFF894FFCFEA
:00000001FF
