:100000000C9448000C9465000C9465000C946500F9
:100010000C9465000C9465000C9465000C946500CC
:100020000C9465000C9465000C9465000C946500BC
:100030000C9465000C9465000C9465000C946500AC
:100040000C9465000C9465000C9465000C9465009C
:100050000C9465000C9465000C9465000C9465008C
:100060000C9465000C9465000C9465000C9465007C
:100070000C9465000C9467000C9465000C9465006A
:100080000C9465000C9465000C9465000C9465005C
:1000900011241FBECFEFCDBFDFE3DEBF28E2A4E017
:1000A000B8E201C01D92A830B207E1F718E2A0E063
:1000B000B8E2EEEAF3E002C005900D92A430B10779
:1000C000D9F70E94A9000C94D5010C9400001F924E
:1000D0000F920FB60F9211242F938F939F93AF938C
:1000E000BF93EF93FF93E0EAF4E02185218720910D
:1000F0006404822F817090E08093042890930528F7
:10010000892B31F0E0E6F4E081E0848384E08683AB
:10011000E0E6F4E082E08683A9EFB0E01197F1F722
:1001200000C0000085838091042890910528892BC8
:1001300021F084E0858381E08683FF91EF91BF9178
:10014000AF919F918F912F910F900FBE0F901F90A5
:100150001895E0E6F4E08081876080838481866082
:100160008483E0EAF4E085898960858B78940E9435
:1001700062016AE070E00E94EE00282F392F809320
:100180000628909307282115310531F025303105D7
:1001900019F02830310559F7E0E6F4E081E0858375
:1001A00084E086830E9462016AE070E00E94EE00B3
:1001B000282F392F80930628909307282115310581
:1001C00089F32530310571F32830310559F3E0E624
:1001D000F4E084E0858381E08683C9CF97FB072E16
:1001E00016F4009407D077FD09D00E94020107FCA5
:1001F00005D03EF4909581959F4F08957095619537
:100200007F4F0895AA1BBB1B51E107C0AA1FBB1F4C
:10021000A617B70710F0A61BB70B881F991F5A9592
:10022000A9F780959095BC01CD0108958F929F927A
:10023000AF92BF92CF92DF92EF92FF92CF93DF9374
:10024000EC01688179818A819B8161157105810545
:10025000910521F464E279ED8BE597E02DE133EF30
:1002600041E050E00E94720149015A019B01AC013A
:10027000A7EAB1E40E9491016B017C01ACEEB4EFFE
:10028000A50194010E949F01DC01CB018C0D9D1DF5
:10029000AE1DBF1DB7FF03C00197A109B0488883F9
:1002A0009983AA83BB839F77DF91CF91FF90EF90D3
:1002B000DF90CF90BF90AF909F908F9008950E9455
:1002C0001601089580E098E20E9416010895A0E0CA
:1002D000B0E08093002890930128A0930228B09367
:1002E00003280895052E97FB1EF400940E948901AF
:1002F00057FD07D00E94A40107FC03D04EF40C94D4
:10030000890150954095309521953F4F4F4F5F4F54
:10031000089590958095709561957F4F8F4F9F4F71
:1003200008950E94C601A59F900DB49F900DA49FB3
:10033000800D911D11240895B7FF0C9491010E9426
:100340009101821B930B0895A1E21A2EAA1BBB1BDD
:10035000FD010DC0AA1FBB1FEE1FFF1FA217B30791
:10036000E407F50720F0A21BB30BE40BF50B661FA7
:10037000771F881F991F1A9469F76095709580956B
:1003800090959B01AC01BD01CF010895A29FB001E2
:10039000B39FC001A39F700D811D1124911DB29FB9
:0E03A000700D811D1124911D0895F894FFCF5A
:0403AE00010000004A
:00000001FF
