:100000000C9448000C9465000C9465000C946500F9
:100010000C9465000C9465000C9465000C946500CC
:100020000C9465000C9410010C9465000C94650010
:100030000C9465000C9465000C9465000C946500AC
:100040000C9465000C9465000C9465000C9465009C
:100050000C9465000C9465000C9465000C9465008C
:100060000C9465000C9465000C9465000C9465007C
:100070000C9465000C94B8000C9465000C94650019
:100080000C9465000C9465000C9465000C9465005C
:1000900011241FBECFEFCDBFDFE3DEBF18E2A0E02B
:1000A000B8E2E4E2F4E002C005900D92A630B10798
:1000B000D9F728E2A6E0B8E201C01D92AA30B20743
:1000C000E1F70E9467000C9410020C940000E0E637
:1000D000F4E0808187608083848186608483E0EAA5
:1000E000F4E085898960858B78940E949D016AE09F
:1000F00070E00E942901282F392F809308289093BF
:1001000009282115310531F02530310519F0283045
:10011000310559F7E0E6F4E081E0858384E08683E9
:1001200089EF90E00197F1F700C000000E949D0167
:100130006AE070E00E942901282F392F8093082857
:10014000909309282115310559F32530310541F3E4
:100150002830310529F3E0E6F4E084E0858381E08E
:10016000868389EF90E00197F1F700C00000BDCFD2
:100170001F920F920FB60F9211242F938F939F937C
:10018000EF93FF93E0EAF4E0218521872091640456
:10019000822F817090E08093062890930728892B06
:1001A00031F4E0E6F4E081E0848384E0868381E05A
:1001B00090E08093042890930528E0E0FAE010A2F4
:1001C00011A211828AE090E080A791A78EE080833F
:1001D00080818160808380E18287789482E080934F
:1001E00066048091042890910528892BD1F782E03C
:1001F000809365048091062890910728892B31F41B
:10020000E0E6F4E084E0858381E08683FF91EF916E
:100210009F918F912F910F900FBE0F901F90189567
:100220001F920F920FB60F9211248F93EF93FF93AB
:10023000E0E0FAE010828385838710920428109210
:100240000528FF91EF918F910F900FBE0F901F9097
:10025000189597FB072E16F4009407D077FD09D068
:100260000E943D0107FC05D03EF4909581959F4F7B
:100270000895709561957F4F0895AA1BBB1B51E1AE
:1002800007C0AA1FBB1FA617B70710F0A61BB70B06
:10029000881F991F5A95A9F780959095BC01CD01AB
:1002A00008958F929F92AF92BF92CF92DF92EF927A
:1002B000FF92CF93DF93EC01688179818A819B81E2
:1002C000611571058105910521F464E279ED8BE5F5
:1002D00097E02DE133EF41E050E00E94AD0149018C
:1002E0005A019B01AC01A7EAB1E40E94CC016B0169
:1002F0007C01ACEEB4EFA50194010E94DA01DC01AF
:10030000CB018C0D9D1DAE1DBF1DB7FF03C0019716
:10031000A109B04888839983AA83BB839F77DF9123
:10032000CF91FF90EF90DF90CF90BF90AF909F90D4
:100330008F9008950E945101089580E098E20E94F4
:1003400051010895A0E0B0E0809300289093012827
:10035000A0930228B09303280895052E97FB1EF45E
:1003600000940E94C40157FD07D00E94DF0107FCE2
:1003700003D04EF40C94C4015095409530952195CE
:100380003F4F4F4F5F4F08959095809570956195C1
:100390007F4F8F4F9F4F08950E940102A59F900DA0
:1003A000B49F900DA49F800D911D11240895B7FF57
:1003B0000C94CC010E94CC01821B930B0895A1E206
:1003C0001A2EAA1BBB1BFD010DC0AA1FBB1FEE1FCF
:1003D000FF1FA217B307E407F50720F0A21BB30B1A
:1003E000E40BF50B661F771F881F991F1A9469F796
:1003F00060957095809590959B01AC01BD01CF01F2
:100400000895A29FB001B39FC001A39F700D811DED
:100410001124911DB29F700D811D1124911D08950D
:04042000F894FFCF7E
:06042400010000000100D0
:00000001FF
