:100000000C9448000C9465000C9465000C946500F9
:100010000C9465000C9465000C9465000C94D00061
:100020000C9465000C94E7000C9465000C9465003A
:100030000C9465000C9465000C9465000C946500AC
:100040000C9465000C9465000C9465000C9465009C
:100050000C9465000C9465000C9465000C942201CE
:100060000C9465000C9465000C9465000C9465007C
:100070000C9465000C944D010C9465000C94650083
:100080000C9465000C9465000C9465000C9465005C
:1000900011241FBECFEFCDBFDFE3DEBF18E2A0E02B
:1000A000B8E2E7E6F9E002C005900D92A430B1078E
:1000B000D9F728E2A4E0B8E201C01D92AE30B20741
:1000C000E1F70E9467000C94A7040C940000E0EA9A
:1000D000F4E085898960858B86898960868B789430
:1000E00082E599E49F938F930E94CF010F900F9028
:1000F000F7CFE0E0FAE010A211A2118285E090E0D3
:1001000080A791A78EE0808380818160808380E1D9
:1001100082870895E0E0FAE08AE0808384E090E05E
:1001200086A397A382E090E080A791A78181836056
:10013000818381E08287828580618287808181607E
:1001400080830895E0E0F6E0808180838081826092
:1001500080838081816080838681876086838485B7
:1001600081608487828993898861828B938B828561
:1001700082608287848181608483808581608087BA
:10018000089581E090E08093022890930328809363
:10019000660410920006E0E0FAE0108212860895EC
:1001A0001F920F920FB60F9211248F93EF93FF932C
:1001B000E0E0FAE08385838781E080936504FF9126
:1001C000EF918F910F900FBE0F901F9018951F9277
:1001D0000F920FB60F9211242F933F934F935F937B
:1001E0006F937F938F939F93AF93BF93EF93FF93FF
:1001F000E0E0FAE010828385838780910228909165
:100200000328019761F40E94A20080910228909136
:1002100003280196809302289093032802C00E942D
:100220008A00FF91EF91BF91AF919F918F917F9144
:100230006F915F914F913F912F910F900FBE0F9053
:100240001F9018951F920F920FB60F9211242F93A3
:100250003F934F935F936F937F938F939F93AF934E
:10026000BF93EF93FF93E0E0F6E08385838781E01F
:10027000809366040E947900FF91EF91BF91AF9146
:100280009F918F917F916F915F914F913F912F91AE
:100290000F900FBE0F901F9018951F920F920FB6E0
:1002A0000F9211242F933F934F935F936F937F93FC
:1002B0008F939F93AF93BF93EF93FF93E0EAF4E0A4
:1002C00081858187803271F4809100289091012886
:1002D00002970297B0F081E090E080930628909317
:1002E00007280FC080910028909101288130910546
:1002F00041F0049731F081E090E0809306289093DC
:10030000072880910028909101288430910589F573
:100310008091062890910728019781F01092042877
:10032000109205288091022890910328019719F4D2
:100330000E94790017C00E94C10014C08091042857
:100340009091052801968093042890930528209188
:100350000228309103282230310521F4039711F44B
:100360000E948A0081E090E0809300289093012809
:1003700005C001968093002890930128FF91EF918A
:10038000BF91AF919F918F917F916F915F914F91AD
:100390003F912F910F900FBE0F901F901895A0E0E6
:1003A000B0E0E5EDF1E00C948604AE014B5F5F4FE9
:1003B000FA0161917191AF0180910A2890910B2807
:1003C0000E94E501E2E00C949F04ABE0B0E0EBEEAC
:1003D000F1E00C9476046C017B018A01FC01168229
:1003E0001782838181FFCCC1CE0101963C01F601C9
:1003F0009381F70193FD859193FF81917F0188237C
:1004000009F4BAC1853239F493FD859193FF819146
:100410007F01853229F4B60190E00E94DC03E7CF2A
:10042000912C212C312CFFE1F315D8F08B3279F08F
:1004300038F4803279F08332A1F4232D20611DC07D
:100440008D3261F0803369F4232D216016C0832D35
:100450008260382EE32DE4603E2E2AC0F32DF86032
:100460001DC037FC2DC020ED280F2A3040F08E3201
:10047000B9F436FC81C1232D2064322E19C036FE1A
:1004800006C08AE0989E200D1124922E11C0EAE049
:100490002E9E200D1124222EF32DF0623F2E08C037
:1004A0008C3621F4832D8068382E02C0883641F4C2
:1004B000F70193FD859193FF81917F018111B3CF66
:1004C000982F9F7D9554933028F40C5F1F4F9FE326
:1004D00099830DC0833631F0833771F0833509F08D
:1004E00059C021C0F801808189830E5F1F4F882485
:1004F0008394912C530113C02801F2E04F0E511C3C
:10050000F801A080B18036FE03C0692D70E002C002
:100510006FEF7FEFC5010E94D1034C018201F32DE3
:10052000FF773F2E16C0280122E0420E511CF80131
:10053000A080B18036FE03C0692D70E002C06FEF6D
:100540007FEFC5010E94C6034C01F32DF0683F2EDA
:10055000820133FC1BC0822D90E088169906B0F40E
:10056000B60180E290E00E94DC032A94F4CFF5010A
:1005700037FC859137FE81915F01B60190E00E94C2
:10058000DC0321102A9421E0821A9108811491043D
:1005900071F7E8C0843611F0893641F5F80137FE6D
:1005A00007C060817181828193810C5F1F4F08C0F9
:1005B00060817181072E000C880B990B0E5F1F4F15
:1005C000F32DFF763F2E97FF09C09095809570958B
:1005D00061957F4F8F4F9F4FF0683F2E2AE030E0AC
:1005E000A3010E941804882E861845C0853731F46F
:1005F000232D2F7EB22E2AE030E025C0932D997F47
:10060000B92E8F36C1F018F4883579F0B5C080372F
:1006100019F0883721F0B0C0E92FE061BE2EB4FE9A
:100620000DC0FB2DF460BF2E09C034FE0AC0292F77
:100630002660B22E06C028E030E005C020E130E0A0
:1006400002C020E132E0F801B7FE07C0608171818D
:10065000828193810C5F1F4F06C06081718180E0B1
:1006600090E00E5F1F4FA3010E941804882E861889
:10067000FB2DFF773F2E36FE0DC0232D2E7FA22EA1
:10068000891458F434FE0BC032FC09C0832D8E7ED1
:10069000A82E05C0B82CA32C03C0B82C01C0B92CBF
:1006A000A4FE0FC0FE01E80DF11D8081803321F40E
:1006B0009A2D997EA92E09C0A2FE06C0B394B394C8
:1006C00004C08A2D867809F0B394A3FC11C0A0FE63
:1006D00006C0B21488F4280C922C9B180EC0B214D9
:1006E00060F4B60180E290E00E94DC03B394F7CF9F
:1006F000B21418F42B1802C0982C212CA4FE10C0A0
:10070000B60180E390E00E94DC03A2FE17C0A1FCCA
:1007100003C088E790E002C088E590E0B6010CC015
:100720008A2D867859F0A1FE02C08BE201C080E2DA
:10073000A7FC8DE2B60190E00E94DC03891438F436
:10074000B60180E390E00E94DC039A94F7CF8A948C
:10075000F301E80DF11D8081B60190E00E94DC03F9
:100760008110F5CF222009F442CEB60180E290E05C
:100770000E94DC032A94F6CFF6018681978102C09D
:100780008FEF9FEF2B96E2E10C948F04FC01059014
:10079000615070400110D8F7809590958E0F9F1F83
:1007A0000895FC016150704001900110D8F78095C8
:1007B00090958E0F9F1F08950F931F93CF93DF93F4
:1007C000FB01238121FD03C08FEF9FEF2CC022FF8F
:1007D00016C046815781248135814217530744F45E
:1007E000A081B1819D012F5F3F4F208331838C9386
:1007F000268137812F5F3F4F2683378314C08B01BB
:10080000EC01FB010084F185E02D0995892BE1F6CF
:10081000D80116968D919C911797019616968D93F7
:100820009C931797CE01DF91CF911F910F9108955F
:10083000FA01AA27283051F1203181F1E8946F9311
:100840006E7F6E5F7F4F8F4F9F4FAF4FB1E03ED0B7
:10085000B4E03CD0670F781F891F9A1FA11D680F55
:10086000791F8A1F911DA11D6A0F711D811D911D88
:10087000A11D20D009F468943F912AE0269F1124FD
:100880003019305D3193DEF6CF010895462F477061
:10089000405D4193B3E00FD0C9F7F6CF462F4F70BC
:1008A000405D4A3318F0495D31FD4052419302D01A
:1008B000A9F7EACFB4E0A6959795879577956795C0
:1008C000BA95C9F700976105710508959B01AC01C0
:1008D0000A2E06945795479537952795BA95C9F7E7
:1008E000620F731F841F951FA01D08952F923F92C2
:1008F0004F925F926F927F928F929F92AF92BF9230
:10090000CF92DF92EF92FF920F931F93CF93DF93DB
:10091000CDB7DEB7CA1BDB0BCDBFDEBF09942A887B
:10092000398848885F846E847D848C849B84AA8403
:10093000B984C884DF80EE80FD800C811B81AA8190
:10094000B981CE0FD11DCDBFDEBFED010895F89462
:02095000FFCFD7
:1009520057616974696E6720666F7220696E70757F
:05096200742E2E2E0092
:04096700010001008A
:00000001FF
