S02200004578636572636973652032202D20536D617274204465766963652E7372656331
S11300000C9448000C9465000C9465000C946500F5
S11300100C9465000C9465000C9465000C946500C8
S11300200C9465000C9467000C9465000C946500B6
S11300300C9465000C9465000C9465000C946500A8
S11300400C9465000C9465000C9465000C94650098
S11300500C9465000C9465000C9465000C940901E3
S11300600C9465000C9465000C9465000C94650078
S11300700C9465000C9456010C9465000C94650076
S11300800C9465000C9465000C9465000C94650058
S113009011241FBECFEFCDBFDFE3DEBF28E2A4E013
S11300A0B8E201C01D92AE30B207E1F718E2A0E059
S11300B0B8E2E2EBF4E002C005900D92A430B1077F
S11300C0D9F70E94B9000C9457020C9400001F92B7
S11300D00F920FB60F9211242F933F938F93EF93A8
S11300E0FF93E0E0FAE010828385282F30E020932C
S11300F00C2830930D288387E0E6F4E08481836044
S11301008483868181608683FF91EF918F913F91F3
S11301102F910F900FBE0F901F901895E0E0F6E01E
S113012080818083808182608083808181608083FC
S113013086818760868384858160848782899389A8
S11301408861828B938B82858260828784818160BF
S113015084830895E0E0FAE010A211A2118280A73E
S113016091A78EE0808380818160808380E1828793
S11301700895CF93DF93C0E6D4E0888187608883B5
S11301800E948E00789482E08C83E0E0F6E0808523
S1130190816080872DC080910A2890910B28892B3B
S11301A039F50E94E401109204281092052883EF87
S11301B091E00197F1F700C000008091042890912C
S11301C00528892BA9F4E0E6F4E084818160848326
S11301D086818260868381E090E00E94AA008091FB
S11301E0082890910928019680930828909309285B
S11301F0809108289091092808976CF2E0E6F4E0D1
S1130200848183608483F89480E090E0DF91CF91CF
S113021008951F920F920FB60F9211242F933F93BC
S11302204F935F936F937F938F939F93AF93BF93FA
S1130230EF93FF93E0E0F6E08385282F30E02093EE
S11302400C2830930D288387E0E6F4E084818160F4
S113025084838091062890910728892B21F4868134
S11302608460868305C0E0E6F4E08681826086834C
S113027081E090E00E94AA008091082890910928CA
S113028001968093082890930928FF91EF91BF91DC
S1130290AF919F918F917F916F915F914F913F911A
S11302A02F910F900FBE0F901F9018951F920F92D1
S11302B00FB60F9211242F933F934F935F936F9335
S11302C07F938F939F93AF93BF93CF93DF93EF93DA
S11302D0FF93E0EAF4E08185282F30E020930C2896
S11302E030930D288187C0E6D4E08C8181608C83B3
S11302F08E8184608E8382E090E00E94AA008C81CB
S113030084608C838E8181608E83FF91EF91DF9175
S1130310CF91BF91AF919F918F917F916F915F9199
S11303204F913F912F910F900FBE0F901F901895F2
S11303308F929F92AF92BF92CF92DF92EF92FF92F1
S1130340CF93DF93EC01688179818A819B81611568
S113035071058105910521F464E279ED8BE597E05F
S11303602DE133EF41E050E00E94F40149015A01CC
S11303709B01AC01A7EAB1E40E9413026B017C016A
S1130380ACEEB4EFA50194010E942102DC01CB0183
S11303908C0D9D1DAE1DBF1DB7FF03C00197A109A4
S11303A0B04888839983AA83BB839F77DF91CF91D9
S11303B0FF90EF90DF90CF90BF90AF909F908F9081
S11303C008950E949801089580E098E20E9498019F
S11303D00895A0E0B0E08093002890930128A093B2
S11303E00228B09303280895052E97FB1EF4009469
S11303F00E940B0257FD07D00E94260207FC03D07F
S11304004EF40C940B0250954095309521953F4F36
S11304104F4F5F4F089590958095709561957F4FEC
S11304208F4F9F4F08950E944802A59F900DB49F3F
S1130430900DA49F800D911D11240895B7FF0C9475
S113044013020E941302821B930B0895A1E21A2E39
S1130450AA1BBB1BFD010DC0AA1FBB1FEE1FFF1F64
S1130460A217B307E407F50720F0A21BB30BE40BB4
S1130470F50B661F771F881F991F1A9469F76095FB
S11304807095809590959B01AC01BD01CF010895B5
S1130490A29FB001B39FC001A39F700D811D1124C1
S11304A0911DB29F700D811D1124911D0895F89422
S10504B0FFCF78
S10704B20100000041
S9030000FC
